{
  "_format": "hh-sol-artifact-1",
  "contractName": "FaucetTest",
  "sourceName": "contracts/Faucet.sol",
  "abi": [
    {
      "inputs": [
        {
          "internalType": "address",
          "name": "_admin",
          "type": "address"
        },
        {
          "internalType": "address",
          "name": "_token",
          "type": "address"
        },
        {
          "internalType": "uint8",
          "name": "_allowedHits",
          "type": "uint8"
        },
        {
          "internalType": "uint256[]",
          "name": "_lvls",
          "type": "uint256[]"
        },
        {
          "internalType": "uint256[]",
          "name": "_tokensPerLvl",
          "type": "uint256[]"
        }
      ],
      "stateMutability": "nonpayable",
      "type": "constructor"
    },
    {
      "inputs": [],
      "name": "AlreadyHit",
      "type": "error"
    },
    {
      "inputs": [],
      "name": "NotPermitted",
      "type": "error"
    },
    {
      "inputs": [
        {
          "internalType": "uint256[]",
          "name": "_lvls",
          "type": "uint256[]"
        },
        {
          "internalType": "uint256[]",
          "name": "_lvlTokens",
          "type": "uint256[]"
        }
      ],
      "name": "addNewLevels",
      "outputs": [],
      "stateMutability": "nonpayable",
      "type": "function"
    },
    {
      "inputs": [],
      "name": "admin",
      "outputs": [
        {
          "internalType": "address",
          "name": "",
          "type": "address"
        }
      ],
      "stateMutability": "view",
      "type": "function"
    },
    {
      "inputs": [],
      "name": "allowedHits",
      "outputs": [
        {
          "internalType": "uint8",
          "name": "",
          "type": "uint8"
        }
      ],
      "stateMutability": "view",
      "type": "function"
    },
    {
      "inputs": [
        {
          "internalType": "address",
          "name": "",
          "type": "address"
        }
      ],
      "name": "allowedWallets",
      "outputs": [
        {
          "internalType": "bool",
          "name": "",
          "type": "bool"
        }
      ],
      "stateMutability": "view",
      "type": "function"
    },
    {
      "inputs": [],
      "name": "gas",
      "outputs": [
        {
          "internalType": "uint256",
          "name": "",
          "type": "uint256"
        }
      ],
      "stateMutability": "view",
      "type": "function"
    },
    {
      "inputs": [
        {
          "internalType": "address payable",
          "name": "me",
          "type": "address"
        }
      ],
      "name": "goodbye",
      "outputs": [],
      "stateMutability": "nonpayable",
      "type": "function"
    },
    {
      "inputs": [
        {
          "internalType": "uint256",
          "name": "lvl",
          "type": "uint256"
        }
      ],
      "name": "hitMe",
      "outputs": [
        {
          "internalType": "uint256",
          "name": "",
          "type": "uint256"
        }
      ],
      "stateMutability": "nonpayable",
      "type": "function"
    },
    {
      "inputs": [
        {
          "internalType": "address",
          "name": "",
          "type": "address"
        }
      ],
      "name": "hits",
      "outputs": [
        {
          "internalType": "uint256",
          "name": "",
          "type": "uint256"
        }
      ],
      "stateMutability": "view",
      "type": "function"
    },
    {
      "inputs": [],
      "name": "launch",
      "outputs": [
        {
          "internalType": "uint256",
          "name": "",
          "type": "uint256"
        }
      ],
      "stateMutability": "view",
      "type": "function"
    },
    {
      "inputs": [
        {
          "internalType": "uint256",
          "name": "",
          "type": "uint256"
        }
      ],
      "name": "lvls",
      "outputs": [
        {
          "internalType": "uint256",
          "name": "",
          "type": "uint256"
        }
      ],
      "stateMutability": "view",
      "type": "function"
    },
    {
      "inputs": [
        {
          "internalType": "uint256",
          "name": "",
          "type": "uint256"
        }
      ],
      "name": "myFood",
      "outputs": [
        {
          "internalType": "uint256",
          "name": "",
          "type": "uint256"
        }
      ],
      "stateMutability": "view",
      "type": "function"
    },
    {
      "inputs": [
        {
          "internalType": "address",
          "name": "_newAdmin",
          "type": "address"
        }
      ],
      "name": "setAdmin",
      "outputs": [],
      "stateMutability": "nonpayable",
      "type": "function"
    },
    {
      "inputs": [
        {
          "internalType": "uint8",
          "name": "_newHits",
          "type": "uint8"
        }
      ],
      "name": "setAllowedHits",
      "outputs": [
        {
          "internalType": "uint256",
          "name": "",
          "type": "uint256"
        }
      ],
      "stateMutability": "nonpayable",
      "type": "function"
    },
    {
      "inputs": [
        {
          "internalType": "address",
          "name": "addr",
          "type": "address"
        }
      ],
      "name": "setAllowedWallet",
      "outputs": [],
      "stateMutability": "payable",
      "type": "function"
    },
    {
      "inputs": [],
      "name": "summoner",
      "outputs": [
        {
          "internalType": "address",
          "name": "",
          "type": "address"
        }
      ],
      "stateMutability": "view",
      "type": "function"
    },
    {
      "inputs": [],
      "name": "token",
      "outputs": [
        {
          "internalType": "address",
          "name": "",
          "type": "address"
        }
      ],
      "stateMutability": "view",
      "type": "function"
    },
    {
      "stateMutability": "payable",
      "type": "receive"
    }
  ],
  "bytecode": "0x60806040523480156200001157600080fd5b506040516200119b3803806200119b833981016040819052620000349162000250565b60016000558051825114620000785760405162461bcd60e51b8152602060048201526006602482015265042dac2e8c6d60d31b604482015260640160405180910390fd5b600280546001600160a01b03199081166001600160a01b03888116919091179092556003805460018054909316938816939093179091556001600160a81b03199091163360ff60a01b191617600160a01b60ff8616021790554260055560005b82518110156200017d57818181518110620000f757620000f762000324565b60200260200101516007600085848151811062000118576200011862000324565b6020026020010151815260200190815260200160002081905550600483828151811062000149576200014962000324565b60209081029190910181015182546001810184556000938452919092200155806200017481620002fa565b915050620000d8565b50505050505062000350565b80516001600160a01b0381168114620001a157600080fd5b919050565b600082601f830112620001b857600080fd5b815160206001600160401b0380831115620001d757620001d76200033a565b8260051b604051601f19603f83011681018181108482111715620001ff57620001ff6200033a565b604052848152838101925086840182880185018910156200021f57600080fd5b600092505b858310156200024457805184529284019260019290920191840162000224565b50979650505050505050565b600080600080600060a086880312156200026957600080fd5b620002748662000189565b9450620002846020870162000189565b9350604086015160ff811681146200029b57600080fd5b60608701519093506001600160401b0380821115620002b957600080fd5b620002c789838a01620001a6565b93506080880151915080821115620002de57600080fd5b50620002ed88828901620001a6565b9150509295509295909350565b60006000198214156200031d57634e487b7160e01b600052601160045260246000fd5b5060010190565b634e487b7160e01b600052603260045260246000fd5b634e487b7160e01b600052604160045260246000fd5b610e3b80620003606000396000f3fe6080604052600436106100f75760003560e01c806377c269151161008a578063f851a44011610059578063f851a440146102d4578063fc0c546a146102f4578063fde65d1514610314578063fdf3a8f41461033457600080fd5b806377c26915146102095780637d4e4a1b146102495780638a4d2c901461027c578063dacaa9d11461029c57600080fd5b80636ca7c216116100c65780636ca7c2161461019b578063704b6c02146101b65780637245efe6146101d657806373c768d7146101e957600080fd5b806301339c211461010357806312425bd41461012c5780633a31b5e01461014e5780636440c3c31461017b57600080fd5b366100fe57005b600080fd5b34801561010f57600080fd5b5061011960055481565b6040519081526020015b60405180910390f35b34801561013857600080fd5b5061014c610147366004610bc2565b610361565b005b34801561015a57600080fd5b50610119610169366004610c65565b60076020526000908152604090205481565b34801561018757600080fd5b50610119610196366004610c65565b6103f0565b3480156101a757600080fd5b506101196611c37937e0800081565b3480156101c257600080fd5b5061014c6101d1366004610bc2565b610411565b61014c6101e4366004610bc2565b61045e565b3480156101f557600080fd5b50610119610204366004610c65565b610543565b34801561021557600080fd5b50610239610224366004610bc2565b60066020526000908152604090205460ff1681565b6040519015158152602001610123565b34801561025557600080fd5b5060035461026a90600160a01b900460ff1681565b60405160ff9091168152602001610123565b34801561028857600080fd5b5061014c610297366004610bdf565b61068f565b3480156102a857600080fd5b506003546102bc906001600160a01b031681565b6040516001600160a01b039091168152602001610123565b3480156102e057600080fd5b506002546102bc906001600160a01b031681565b34801561030057600080fd5b506001546102bc906001600160a01b031681565b34801561032057600080fd5b5061011961032f366004610c7e565b610794565b34801561034057600080fd5b5061011961034f366004610bc2565b60086020526000908152604090205481565b6003546001600160a01b0316331461038c576040516339218f3b60e01b815260040160405180910390fd5b60006005546211238061039f9190610d21565b90508042116103e45760405162461bcd60e51b815260206004820152600c60248201526b139bdd081d1a5b59481e595d60a21b60448201526064015b60405180910390fd5b816001600160a01b0316ff5b6004818154811061040057600080fd5b600091825260209091200154905081565b6003546001600160a01b0316331461043c576040516339218f3b60e01b815260040160405180910390fd5b600280546001600160a01b0319166001600160a01b0392909216919091179055565b6002546001600160a01b03163314610489576040516339218f3b60e01b815260040160405180910390fd5b6001600160a01b038116600081815260066020526040808220805460ff19166001179055519091906611c37937e08000908381818185875af1925050503d80600081146104f2576040519150601f19603f3d011682016040523d82523d6000602084013e6104f7565b606091505b505090508061053f5760405162461bcd60e51b81526020600482015260146024820152732330b4b632b2103a379039b2b7321022ba3432b960611b60448201526064016103db565b5050565b6000600260005414156105985760405162461bcd60e51b815260206004820152601f60248201527f5265656e7472616e637947756172643a207265656e7472616e742063616c6c0060448201526064016103db565b600260009081556003543382526008602052604090912054600160a01b90910460ff16116105d957604051632e199ba160e01b815260040160405180910390fd5b3360009081526006602052604090205460ff16610609576040516339218f3b60e01b815260040160405180910390fd5b60008281526007602052604090205460011115610639576040516339218f3b60e01b815260040160405180910390fd5b60008281526007602052604090205460015461065f906001600160a01b0316338361081b565b33600090815260086020526040812080546001929061067f908490610d21565b9091555050600160005592915050565b6002546001600160a01b031633146106ba576040516339218f3b60e01b815260040160405180910390fd5b80518251146106f45760405162461bcd60e51b8152602060048201526006602482015265042dac2e8c6d60d31b60448201526064016103db565b60005b825181101561078f5781818151811061071257610712610d9a565b60200260200101516007600085848151811061073057610730610d9a565b6020026020010151815260200190815260200160002081905550600483828151811061075e5761075e610d9a565b602090810291909101810151825460018101845560009384529190922001558061078781610d69565b9150506106f7565b505050565b6002546000906001600160a01b031633146107c2576040516339218f3b60e01b815260040160405180910390fd5b6107f5604051806060016040528060278152602001610ddf6027913960035460ff600160a01b909104811690851661086d565b506003805460ff60a01b1916600160a01b60ff9384168102919091179182905590041690565b604080516001600160a01b038416602482015260448082018490528251808303909101815260649091019091526020810180516001600160e01b031663a9059cbb60e01b17905261078f9084906108b4565b61078f83838360405160240161088593929190610cfc565b60408051601f198184030181529190526020810180516001600160e01b031663969cdd0360e01b179052610986565b6000610909826040518060400160405280602081526020017f5361666545524332303a206c6f772d6c6576656c2063616c6c206661696c6564815250856001600160a01b03166109a79092919063ffffffff16565b80519091501561078f57808060200190518101906109279190610c43565b61078f5760405162461bcd60e51b815260206004820152602a60248201527f5361666545524332303a204552433230206f7065726174696f6e20646964206e6044820152691bdd081cdd58d8d9595960b21b60648201526084016103db565b80516a636f6e736f6c652e6c6f67602083016000808483855afa5050505050565b60606109b684846000856109c0565b90505b9392505050565b606082471015610a215760405162461bcd60e51b815260206004820152602660248201527f416464726573733a20696e73756666696369656e742062616c616e636520666f6044820152651c8818d85b1b60d21b60648201526084016103db565b843b610a6f5760405162461bcd60e51b815260206004820152601d60248201527f416464726573733a2063616c6c20746f206e6f6e2d636f6e747261637400000060448201526064016103db565b600080866001600160a01b03168587604051610a8b9190610ccd565b60006040518083038185875af1925050503d8060008114610ac8576040519150601f19603f3d011682016040523d82523d6000602084013e610acd565b606091505b5091509150610add828286610ae8565b979650505050505050565b60608315610af75750816109b9565b825115610b075782518084602001fd5b8160405162461bcd60e51b81526004016103db9190610ce9565b600082601f830112610b3257600080fd5b8135602067ffffffffffffffff80831115610b4f57610b4f610db0565b8260051b604051601f19603f83011681018181108482111715610b7457610b74610db0565b60405284815283810192508684018288018501891015610b9357600080fd5b600092505b85831015610bb6578035845292840192600192909201918401610b98565b50979650505050505050565b600060208284031215610bd457600080fd5b81356109b981610dc6565b60008060408385031215610bf257600080fd5b823567ffffffffffffffff80821115610c0a57600080fd5b610c1686838701610b21565b93506020850135915080821115610c2c57600080fd5b50610c3985828601610b21565b9150509250929050565b600060208284031215610c5557600080fd5b815180151581146109b957600080fd5b600060208284031215610c7757600080fd5b5035919050565b600060208284031215610c9057600080fd5b813560ff811681146109b957600080fd5b60008151808452610cb9816020860160208601610d39565b601f01601f19169290920160200192915050565b60008251610cdf818460208701610d39565b9190910192915050565b6020815260006109b96020830184610ca1565b606081526000610d0f6060830186610ca1565b60208301949094525060400152919050565b60008219821115610d3457610d34610d84565b500190565b60005b83811015610d54578181015183820152602001610d3c565b83811115610d63576000848401525b50505050565b6000600019821415610d7d57610d7d610d84565b5060010190565b634e487b7160e01b600052601160045260246000fd5b634e487b7160e01b600052603260045260246000fd5b634e487b7160e01b600052604160045260246000fd5b6001600160a01b0381168114610ddb57600080fd5b5056fe4368616e67696e6720616c6c6f77656420686974732066726f6d202725732720746f2027257327a26469706673582212207636e1288b272f962b6c23ea0ce8bcf7ebdad29af04b3d94c23a34d412ac3c5a64736f6c63430008050033",
  "linkReferences": {},
  "deployedLinkReferences": {}
}